:100000000A128A11F62F00308A000408840A820737
:1000100000344D346934633472346F34773461346E
:100020007634653420344F34763465346E3400349D
:1000300050346F3477346534723420344F346E3436
:0200400000348A
:100DB40001340A128A11E9260A128A110800F40180
:100DC40001300A128A11F4260A128A1108008316C5
:100DD40003138801091189100A128A1193270A1230
:100DE4008A110800F500F00174080A128A115D27BF
:100DF4000A128A11F001F00A75080A128A115D2795
:100E04000A128A1108000130F4008030F5000A1239
:100E14008A1138270A128A111030F400C030F50004
:100E24000A128A1138270A128A1108000A128A1132
:100E3400DB260A128A110A128A1105270A128A115C
:100E44001A30F8005E30F7006E30F600F60B282FEB
:100E5400F70B282FF80B282F00000A128A11E1261D
:100E64000A128A111D2F0A128A110028F00175082E
:100E74000A128A115D270A128A11502FF001F00A12
:100E8400740884000A128A1103200A128A110A12B1
:100E94008A115D270A128A110130F407740884004C
:100EA4000A128A1103200A128A11003A031D5B2FC9
:100EB4005C2F402F0800F3007018612F652F8312F8
:100EC40003130915682F8312031309117308F039EA
:100ED40088008914A630F100F10B6E2F00008312F4
:100EE4000313891073080F39F10003300310F10D57
:100EF400FF3E031D782F0310710D88008914A6305E
:100F0400F100F10B832F00008312031389101B30AF
:100F1400F2009E30F100F10B8D2FF20B8D2F0000AB
:100F24000800C330F500CD30F400F40B972FF50B17
:100F3400972FF00133300A128A115D270A128A11A1
:100F44001B30F5009E30F400F40BA62FF50BA62FF2
:100F54000000F00133300A128A115D270A128A1147
:100F6400A630F400F40BB42F0000F00133300A1261
:100F74008A115D270A128A11BF2FC02F0000F001C9
:100F840002300A128A115D270A128A11A630F4006F
:100F9400F40BCA2F0000F00128300A128A115D27D1
:100FA4000A128A11A630F400F40BD62F0000F001C7
:100FB40001300A128A115D270A128A110430F500E1
:100FC4003D30F400F40BE42FF50BE42FE92FF0018E
:100FD4000C300A128A115D270A128A11A630F40015
:100FE400F40BF22F000008000A128A11DA260A1202
:0C0FF4008A11F90083010A128A11182FDB
:00000001FF
