:060000000A128A110C280F
:10000800FE00030EF0000A08F1000A128A156E2C91
:100018000A128A110F280A128A11FA270A128A115B
:10002800FB00BD01BE01BF01C001C101C201C30186
:10003800C401C501C601C701C801C901CA01CB0174
:1000480083010A128A1128280A128A15A0230A1283
:100058008A11013083120313BB00F62B0A128A158A
:10006800DF260A128A111A3083120313A9005E30A0
:10007800A8006D30A700A70B3F28A80B3F28A90BA5
:100088003F2846280A128A1566230A128A110A127C
:100098008A1522250A128A11023083120313BB0023
:1000A800F62B01300A128A1526240A128A118312A5
:1000B8000313BC0007113C03031D63286428672849
:1000C8000330BB00F62B02303C06031D6C286D285C
:1000D80070280630BB00F62B03303C06031D75283C
:1000E800762879280730BB00F62B04303C06031D20
:1000F8007E287F28F62B0830BB00F62B0A128A15BB
:1001080066230A128A110A128A15EE230A128A1124
:100118001A3083120313A9005E30A8006D30A700BF
:10012800A70B9428A80B9428A90B94289B280A129B
:100138008A1566230A128A110A128A15C6240A1217
:100148008A1183120313B5013508453E84008313D1
:1001580080010130B50704303502031CB428B528E6
:10016800A828C4010430BB00F62B0A128A15D22332
:100178000A128A111A3083120313A9005E30A800EC
:100188006D30A700A70BC628A80BC628A90BC62840
:10019800CD280A128A1566230A128A110A128A15AC
:1001A800C6240A128A1183120313B6013608453E83
:1001B8008400831380010130B60704303602031C23
:1001C800E628E728DA28B5280A128A15B6230A127B
:1001D8008A110D3083120313A900AF30A800B5307F
:1001E800A700A70BF528A80BF528A90BF528FC28CC
:1001F8000A128A1566230A128A110A128A15992484
:100208000A128A1183120313B7013708493E840082
:10021800831380010130B70703303702031C152907
:1002280016290929C3010930BB00F62B4530A10066
:100238004408A2000A128A11B9260A128A118312E6
:100248000313071101300A128A1526240A128A118B
:1002580083120313BC003C080319332934294929A4
:100268000A303C02031839293A2949290430440242
:1002780003183F29402949294408453E84003C0881
:10028800831380000130C407F62B3C08031D4D2959
:100298004E295A29043044020318532954295A294B
:1002A8004408453E84008313800146292A303C06D1
:1002B800031D5F2960297229B80104303802031C24
:1002C80066296729682970293808453E8400831300
:1002D80080010130B8076129C401F62B23303C06A0
:1002E800031D77297829F62B4508A700A8012708B8
:1002F800F2002808F3005830F4000230F5000A1222
:100308008A1549240A128A11720883120313A90054
:100318007308AA004608AB00AC012B08F2002C08B1
:10032800F3003C30F4000030F5000A128A15492425
:100338000A128A117208831203132907AD00730881
:100348000318730A2A07AE004708AF00B0012F0848
:10035800F2003008F3000A30F4000030F5000A1209
:100368008A1549240A128A117208831203132D0769
:10037800B10073080318730A2E07B2004808310742
:10038800BF000030031801303207C000C101C201AC
:100398008C103F084004031DD229D6298312031369
:1003A8001215D9298312031312110A128A1566230A
:1003B8000A128A11F2010C300A128A1554250A12FF
:1003C8008A11B230F6008530F7008130F8000A1241
:1003D8008A15F3240A128A11D730F6008530F700FF
:1003E800C230F8000A128A15F3240A128A11CE3094
:1003F800F6008530F7009230F8000A128A15F324C7
:100408000A128A11E830F6008530F700D230F80079
:100418000A128A15F3240A128A1183120313400858
:10042800A2003F08A1000A128A1119240A128A118F
:10043800831203134008BE003F08BD000530BB000F
:10044800F62B4930A1004308A2000A128A1170272E
:100458000A128A1183120313071101300A128A152E
:1004680026240A128A1183120313BC003C080319BC
:100478003E2A3F2A542A0A303C020318442A452AB5
:10048800542A0330430203184A2A4B2A542A4308A1
:10049800493E84003C08831380000130C307F62BD3
:1004A8003C08031D582A592A652A033043020318B9
:1004B8005E2A5F2A652A4308493E84008313800127
:1004C800512A2A303C06031D6A2A6B2A7D2AB90163
:1004D80003303902031C712A722A732A7B2A3908CD
:1004E800493E8400831380010130B9076C2AC30197
:1004F800F62B23303C06031D822A832AF62B490853
:10050800A700A8012708F2002808F3006430F400C7
:100518000030F5000A128A1549240A128A11720855
:1005280083120313A9007308AA004A08AB00AC01A0
:100538002B08F2002C08F3000A30F4000030F50014
:100548000A128A1549240A128A117208831203139F
:100558002907AD0073080318730A2A07AE004B0871
:100568002D07B3000030031801302E07B4001E30E9
:10057800BF000030C000C101C2018C103F08400418
:10058800031DC72ACB2A831203131215CE2A8312FE
:10059800031312110A128A1566230A128A11F2012C
:1005A8000C300A128A1554250A128A110A128A1561
:1005B8000A240A128A11831203134008A2003F0872
:1005C800A1000A128A1569270A128A1183120313D5
:1005D8004008BE003F08BD000A30BB00F62B3E08AD
:1005E8004006031DF92A3D083F060319FC2AFD2A87
:1005F8000C2B4008A2003F08A1000A128A111924F6
:100608000A128A11831203134008BE003F08BD0076
:1006180001300A128A1526240A128A11831203133A
:10062800BC00121D182B192B1B2B07151C2B07118F
:1006380004303C06031D212B222B392B3F08400494
:100648000319272B282B2E2B12192B2B2C2B2E2B57
:1006580012154A2B121D312B322B4A2B1E30BF0785
:100668000318C00A0030C0074A2B05303C06031D9A
:100678003E2B3F2B412B12114A2B06303C06031D03
:10068800462B472B4A2B1211071146283F084004D6
:10069800031D4F2B502BF62B472B3E084006031DFE
:1006A800572B3D083F0603195A2B5B2B6A2B400832
:1006B800A2003F08A1000A128A1569270A128A11A6
:1006C800831203134008BE003F08BD000715013020
:1006D8000A128A1526240A128A1183120313BC00EF
:1006E80004303C06031D792B7A2B822B3F084004EB
:1006F80003197F2B802B922B1215922B05303C0669
:10070800031D872B882B8A2B1211922B06303C064F
:10071800031D8F2B902B922B121146283F08400463
:10072800031D972B982BF62B12110A128A15662394
:100738000A128A110A128A15C6240A128A11831209
:100748000313BA0104303A02031CAB2BAC2BAD2BBC
:10075800B5283A08453E8400831380010130BA0762
:10076800A62B1E30BF000030C000C101C2018C1092
:1007780012150A128A1566230A128A11F2010C3020
:100788000A128A1554250A128A11B230F6008530E9
:10079800F7008130F8000A128A15F3240A128A1128
:1007A800F030F6008530F700C230F8000A128A15DA
:1007B800F3240A128A11CE30F6008530F700923001
:1007C800F8000A128A15F3240A128A11E830F60092
:1007D8008530F700D230F8000A128A15F3240A127D
:1007E8008A11112A3B08013A03193228033A0319DE
:1007F8005528013A03198228073A03191A29013A98
:100808000319F32A033A0319B928013A0319E82806
:100818000F3A0319B52B013A0319252A033A03198C
:10082800512BF62B0A128A110C283C30F2000030AA
:10083800F300831203132208F5002108F4000A12BA
:100848008A11B0240A128A11720883120313A500B0
:100858003C30F2000030F3002208F5002108F400D3
:100868000A128A158A250A128A117208831203133A
:10087800A6008A30FA000A30F2000030F30025089A
:10088800A300A4012308F4002408F5000A128A151D
:1008980019260A128A117208303E0A128A158B2309
:1008A8000A128A118B30FA000A30F2000030F30085
:1008B800831203132508A300A4012308F4002408C5
:1008C800F5000A128A15C2250A128A117208303EEA
:1008D8000A128A158B230A128A118C30FA003A30D0
:1008E8000A128A158B230A128A118D30FA000A30EF
:1008F800F2000030F300831203132608A300A401BA
:100908002308F4002408F5000A128A1519260A1289
:100918008A117208303E0A128A158B230A128A112C
:100928008E30FA000A30F2000030F300831203130D
:100938002608A300A4012308F4002408F5000A12DD
:100948008A15C2250A128A117208303E0A128A15BF
:100958008B230A128A110800F601F7017208730442
:100968000319B72CB82CED2C0130F800C42C013039
:100978000310F20DF30DFF3E031DBC2C0130F807E8
:10098800F31FC72CC82CBB2C01300310F60DF70D34
:10099800FF3E031DC92C73087502031DD52C720870
:1009A8007402031CD82CD92CE02C7208F4027308AA
:1009B800031CF503F502761401300310F30CF20C56
:1009C800FF3E031DE12C0130F802031DEC2CED2C39
:1009D800C82C7708F3007608F20008008316031382
:1009E8008801091189100A128A157C260A128A11AF
:0209F8000800F5
:100A00002034203450346F34773465347234693490
:100A10006E34673420344F344E3420342034203444
:100A2000003420344D346934633472346F34773495
:100A300061347634653420344F34763465346E3422
:100A400020340034533465347434203454346934DD
:100A50006D346534203428344D344D343A345334B5
:100A60005334293400344D346934633472346F3470
:100A7000773461347634653420344D346F346434E3
:100A80006534003450346F34773465347234203434
:100A90003D3420343134323430343034573400343F
:100AA00033342E34203443346F346E34763465342A
:100AB0006334743469346F346E34003453346534C1
:100AC00074342034543465346D3470342034283414
:100AD000433429340034543469346D34653420345B
:100AE0002D342034303430343A343034303400341F
:100AF00050346F3477346534723420343D342034CC
:100B000039343034303457340034543465346D342F
:100B1000703420342D342034303430343034433485
:100B20000034543469346D346534203452346534BF
:100B30006D342E343A3400344734723469346C34B2
:100B40006C3420344D346F346434653400345034A4
:100B500072346534683465346134743469346E34A5
:100B600067340034543469346D346534203452347D
:100B700065346D343A34003432342E342034473402
:100B8000723469346C346C34003431342E34203493
:100B90004D346934633472346F34003435342E3458
:100BA0002034503461347534733465340034343453
:100BB0002E34203453347434613472347434003439
:100BC0002A343A3443344C344534413452340034BA
:100BD00036342E342034533474346F34703400344B
:100BE00034342E3420342B343334303473340034E2
:100BF00023343A34533445345434003483120313C9
:100C000088110815881408146430F2000030F300CD
:100C1000FF30F2070318F30AFF30F307720A031DCF
:100C2000152E730A031D152E162E082E831203137C
:100C300006181B2E1C2E1E2E0130B82E8618212EB3
:100C4000222E242E0230B82E0619272E282E2A2EC8
:100C50000330B82E88150811881408146430F20087
:100C60000030F300FF30F2070318F30AFF30F307F8
:100C70007308803AFF0080307F02031D412E01304F
:100C800072020318442E452E322E831203130618C7
:100C90004A2E4B2E4D2E0430B82E8618502E512E33
:100CA000532E0530B82E0619562E572E592E0630C3
:100CB000B82E88150815881008146430F20000302A
:100CC000F300FF30F2070318F30AFF30F30773084D
:100CD000803AFF0080307F02031D702E01307202C7
:100CE0000318732E742E612E831203130618792EA7
:100CF0007A2E7C2E0730B82E86187F2E802E822EDC
:100D00000830B82E0619852E862E882E0930B82E6A
:100D100088150815881408106430F2000030F300BC
:100D2000FF30F2070318F30AFF30F3077308803A25
:100D3000FF0080307F02031D9F2E013072020318D6
:100D4000A22EA32E902E831203130618A82EA92ECE
:100D5000AB2E2A30B82E8618AE2EAF2EB12E003014
:100D6000B82E0619B42EB52EB72E2330B82EFF306C
:100D70000800831203132208031DBF2EC02ED72E96
:100D8000C930FA005F300A128A158B230A128A11C1
:100D9000C930FA008312031321088400831300086A
:100DA000303E0A128A158B230A128A11E32EC930AB
:100DB000FA002108840083130008303E0A128A15C5
:100DC0008B230A128A11831203132203031DE92EB7
:100DD000EA2E012FCA30FA005F300A128A158B23DF
:100DE0000A128A11CA30FA0083120313210A8400FE
:100DF00083130008303E0A128A158B230A128A11C7
:100E00000D2FCA30FA00210A840083130008303EF7
:100E10000A128A158B230A128A11CB30FA003A3053
:100E20000A128A158B230A128A11023083120313C5
:100E30002206031D1C2F1D2F352FCC30FA005F30EA
:100E40000A128A158B230A128A11CC30FA008312F7
:100E500003132108023E840083130008303E0A1267
:100E60008A158B230A128A11422FCC30FA002108EE
:100E7000023E840083130008303E0A128A158B2339
:100E80000A128A110330831203132206031D492F0D
:100E90004A2F622FCD30FA005F300A128A158B2359
:100EA0000A128A11CD30FA00831203132108033E7F
:100EB000840083130008303E0A128A158B230A121D
:100EC0008A116F2FCD30FA002108033E840083136E
:100ED0000008303E0A128A158B230A128A11080074
:100EE000831203132208031D762F772F8E2FC9300C
:100EF000FA005F300A128A158B230A128A11C93050
:100F0000FA00831203132108840083130008303E83
:100F10000A128A158B230A128A119A2FC930FA00F5
:100F20002108840083130008303E0A128A158B239F
:100F30000A128A11831203132203031DA02FA12F6B
:100F4000B82FCA30FA005F300A128A158B230A12B2
:100F50008A11CA30FA0083120313210A8400831312
:100F60000008303E0A128A158B230A128A11C42FF8
:100F7000CA30FA00210A840083130008303E0A12A6
:100F80008A158B230A128A11023083120313220658
:100F9000031DCB2FCC2FE42FCB30FA005F300A1289
:100FA0008A158B230A128A11CB30FA00831203139D
:100FB0002108023E840083130008303E0A128A157D
:100FC0008B230A128A11F12FCB30FA002108023E3E
:100FD000840083130008303E0A128A158B230A12FC
:100FE0008A11CC30FA0043300A128A158B230A1278
:060FF0008A110800013423
:10100000FF1B0A2883137F1883170008840A03191B
:10101000FF0A08007F087F398A000408840A031940
:04102000FF0A820041
:1016AC00831603130608073886000808F0398800EB
:1016BC008113831203138815081588140814080065
:1016CC00F20101300A128A1554250A128A150430C7
:1016DC00F7003D30F600F60B712BF70B712B762BC8
:1016EC0008008312031312149214FA308316031396
:1016FC009200831203138C10831603138C140B1794
:10170C008B17831203131211080083120313A0000A
:10171C00F2017A080A128A1554250A128A15F20166
:10172C00F20A8312031320080A128A1554250A128E
:10173C008A1508000A128A1577230A128A150A12CA
:10174C008A11F2240A128A150A128A1556230A12D1
:10175C008A1583160313071183120313071108004C
:10176C000A128A1566230A128A155330F600853040
:10177C00F700C330F8000A128A15F3240A128A15EE
:10178C003D30F6008530F7009630F8000A128A15C5
:10179C00F3240A128A1508000A128A1566230A1203
:1017AC008A159C30F6008530F700C330F8000A1219
:1017BC008A15F3240A128A154230F6008530F70098
:1017CC009130F8000A128A15F3240A128A150800BF
:1017DC000A128A1566230A128A153330F6008530F0
:1017EC00F700C130F8000A128A15F3240A128A1580
:1017FC007830F6008530F7009230F8000A128A151E
:10180C00F3240A128A1508000A128A1566230A1292
:10181C008A15A730F6008530F7008330F8000A12DD
:10182C008A15F3240A128A159130F6008530F700D8
:10183C00C330F8000A128A15F3240A128A1508001C
:10184C00F4000A128A11FE250A128A15F500740892
:10185C00031D312C322C342C7508482C750A0319B5
:10186C00382C392C402C7B0803193D2C3E2C402C59
:10187C00FB01322C750A031D442C452C472C0130DE
:10188C00FB00FF300800F601F701721C4E2C4F2CA8
:10189C00552C7408F6070318F70A7508F70701307A
:1018AC000310F40DF50DFF3E031D562C01300310F3
:1018BC00F30CF20CFF3E031D5D2C72087304031D28
:1018CC00682C692C4B2C7708F3007608F200080082
:1018DC00831203138C1C732C742C922C0130C107B3
:1018EC000318C20A0030C207E23041060430031963
:1018FC004206031D822C832C912C3F0840040319B3
:10190C00882C892C8F2C0130BF020030031CC003A3
:10191C00C002C101C2018C1071088A00700E8300D4
:10192C00FE0E7E0E09005E30F6008530F700823028
:10193C00F8000A128A15F3240A128A158530F6006B
:10194C008530F700C230F8000A128A15F3240A1207
:10195C008A15E030F6008530F700D030F8000A1216
:10196C008A15F3240A128A15F830F6008530F70030
:10197C00DB30F8000A128A15F3240A128A150800C3
:10198C002230F6008530F7008030F8000A128A15F4
:10199C00F3240A128A156B30F6008530F700C2303A
:1019AC00F8000A128A15F3240A128A15E030F600A0
:1019BC008530F700D030F8000A128A15F3240A1289
:1019CC008A15F830F6008530F700DB30F8000A1283
:1019DC008A15F3240A128A150800F20178080A12F3
:1019EC008A1554250A128A15112DF201F20A77086C
:1019FC00FF00760884000A128A1500200A128A1544
:101A0C000A128A1554250A128A150130F607031892
:101A1C00F70A0030F707770883120313FF007608E4
:101A2C0084000A128A1500200A128A15003A031D36
:101A3C00202D212DFB2C08000A128A1566230A1270
:101A4C008A15C530F6008530F7008030F8000A1290
:101A5C008A15F3240A128A15BC30F6008530F7007B
:101A6C00C030F8000A128A15F3240A128A15503075
:101A7C00F6008530F7009030F8000A128A15F3242E
:101A8C000A128A15D730F6008530F700D030F800EE
:101A9C000A128A15F3240A128A150800F500721826
:101AAC00582D5C2D8312031309155F2D831203131C
:101ABC0009117508F03988008914A630F300F30B6E
:101ACC00652D000083120313891075080F39F3007C
:101ADC0003300310F30DFF3E031D6F2D0310730D28
:101AEC0088008914A630F300F30B7A2D00008312C2
:101AFC00031389101B30F4009E30F300F30B842D7C
:101B0C00F40B842D000008007208730403198F2D48
:101B1C00902DBD2D0130F6009C2D01300310F20DDF
:101B2C00F30DFF3E031D942D0130F607F31F9F2D7F
:101B3C00A02D932D73087502031DA62D7208740237
:101B4C00031CA92DAA2DB02D7208F4027308031CD6
:101B5C00F503F50201300310F30CF20CFF3E031DEC
:101B6C00B12D0130F602031DBC2DBD2DA02D750825
:101B7C00F3007408F2000800F701F51FC62DC72DFD
:101B8C00CE2DF409F509F40A0319F50A0130F70012
:101B9C00F31FD12DD22DD72DF209F309F20A031917
:101BAC00F30A720873040319DC2DDD2D0A2E0130A3
:101BBC00F600E92D01300310F20DF30DFF3E031D6D
:101BCC00E12D0130F607F31FEC2DED2DE02D730800
:101BDC007502031DF32D72087402031CF62DF72DEC
:101BEC00FD2D7208F4027308031CF503F502013095
:101BFC000310F30CF20CFF3E031DFE2D0130F60218
:101C0C00031D092E0A2EED2D770803190E2E0F2E0B
:101C1C00142EF409F509F40A0319F50A7508F300F2
:101C2C007408F2000800F701F31F1D2E1E2E252E3E
:101C3C00F209F309F20A0319F30A0130F700F51F50
:101C4C00282E292E302EF409F509F40A0319F50A69
:101C5C000130F706F801F901720873040319372EE5
:101C6C00382E6D2E0130F600442E01300310F20D8B
:101C7C00F30DFF3E031D3C2E0130F607F31F472EDC
:101C8C00482E3B2E01300310F80DF90DFF3E031DBD
:101C9C00492E73087502031D552E72087402031C1D
:101CAC00582E592E602E7208F4027308031CF5038B
:101CBC00F502781401300310F30CF20CFF3E031DF7
:101CCC00612E0130F602031D6C2E6D2E482E770806
:101CDC000319712E722E772EF809F909F80A0319D7
:101CEC00F90A7908F3007808F2000800C330F7000D
:101CFC00CD30F600F60B802EF70B802EF201333030
:101D0C000A128A1554250A128A151B30F7009E30C8
:101D1C00F600F60B8F2EF70B8F2E0000F2013330EE
:101D2C000A128A1554250A128A15A630F600F60BEB
:101D3C009D2E0000F20133300A128A1554250A1226
:101D4C008A15A82EA92E0000F20102300A128A155B
:101D5C0054250A128A15A630F600F60BB32E000095
:101D6C00F20128300A128A1554250A128A15A63057
:101D7C00F600F60BBF2E0000F20101300A128A1594
:101D8C0054250A128A150430F7003D30F600F60B84
:101D9C00CD2EF70BCD2ED22EF2010C300A128A1555
:101DAC0054250A128A15A630F600F60BDB2E00001D
:101DBC00080083120313A401A50183120313240842
:101DCC00803EFA00FF300A128A158B230A128A15FC
:101DDC00023083120313A3004530A200A930A100E6
:101DEC00A10BF62EA20BF62EA30BF62E01308312AE
:101DFC000313A4070318A50A0030A5072508803A89
:101E0C00FF0080307F02031D0D2F10302402031CB5
:101E1C00102F112FE32E0030F6008530F700C03064
:101E2C00F8000A128A15F3240A128A150D3083124F
:101E3C000313A300AF30A200B530A100A10B242FD7
:101E4C00A20B242FA30B242F2B2F1130F60085303F
:101E5C00F7009030F8000A128A15F3240A128A153A
:101E6C0083120313A401A501831203132408D03E8B
:101E7C00FA00FF300A128A158B230A128A150230D7
:101E8C0083120313A3004530A200A930A100A10BBB
:101E9C004D2FA20B4D2FA30B4D2F0130831203138B
:101EAC00A4070318A50A0030A5072508803AFF00EF
:101EBC0080307F02031D642F10302402031C672F17
:101ECC00682F3A2F08003C30F2000030F3008312E8
:101EDC0003132208F5002108F4000A128A11B02419
:101EEC000A128A15720883120313A5003C30F20003
:101EFC000030F3002208F5002108F4000A128A15BC
:101F0C008A250A128A15720883120313A6009530CB
:101F1C00FA000A30F2000030F3002508A300A401F7
:101F2C002308F4002408F5000A128A1519260A124F
:101F3C008A157208303E0A128A158B230A128A15EA
:101F4C009630FA000A30F2000030F30083120313CB
:101F5C002508A300A4012308F4002408F5000A12A4
:101F6C008A15C2250A128A157208303E0A128A1581
:101F7C008B230A128A159730FA003A300A128A1506
:101F8C008B230A128A159830FA000A30F2000030BE
:101F9C00F300831203132608A300A4012308F40002
:101FAC002408F5000A128A1519260A128A157208D5
:101FBC00303E0A128A158B230A128A159930FA00C0
:101FCC000A30F2000030F300831203132608A3003A
:101FDC00A4012308F4002408F5000A128A15C2256E
:101FEC000A128A157208303E0A128A158B230A12BD
:041FFC008A1508003A
:02400E00FB3F76
:00000001FF
