:060000000A128A110C280F
:10000800FE00030EF0000A08F1000A128A15E82A19
:100018000A128A110F280A128A11FD270A128A1158
:10002800FB00BE01BF01C001C101C201C301C4017F
:10003800C501C601C701C801C901CA01CB01CC016C
:1000480083010A128A1128280A128A1584220A12A0
:100058008A11013083120313BC006E2C0A128A1510
:1000680013250A128A11073083120313AA00583085
:10007800A9005930A800A80B3F28A90B3F28AA0BB4
:100088003F280A128A15DA210A128A110A128A15D9
:100098009C230A128A11023083120313BC006E2CAF
:1000A80001300A128A15A0220A128A118312031338
:1000B800BD0007113D03031D622863286E28013027
:1000C8000A128A153C240A128A1103308312031378
:1000D800BC006E2C02303D06031D732874287F284F
:1000E80001300A128A153C240A128A11063083123A
:1000F8000313BC006E2C03303D06031D842885289D
:10010800902801300A128A153C240A128A110730F5
:1001180083120313BC006E2C04303D06031D952882
:1001280096286E2C01300A128A153C240A128A116C
:10013800083083120313BC006E2C0A128A15DA21C8
:100148000A128A110A128A154C220A128A111A30C6
:1001580083120313AA005E30A9006D30A800A80B13
:10016800B328A90BB328AA0BB328BA280A128A15F0
:10017800DA210A128A110A128A1540230A128A11F0
:1001880083120313B6013608463E840083138001A8
:100198000130B60704303602031CD328D428C728F8
:1001A800C5010430BC006E2C0A128A1530220A12CE
:1001B8008A111A3083120313AA005E30A9006D3029
:1001C800A800A80BE528A90BE528AA0BE528EC2828
:1001D8000A128A15DA210A128A110A128A1540238C
:1001E8000A128A1183120313B7013708463E8400A6
:1001F800831380010130B70704303702031C052937
:100208000629F928D4280A128A1514220A128A11F2
:100218000D3083120313AA00AF30A900B530A8002F
:10022800A80B1429A90B1429AA0B14291B290A1293
:100238008A15DA210A128A110A128A1513230A1258
:100248008A1183120313B80138084A3E84008313C5
:1002580080010130B80703303802031C34293529DE
:100268002829C4010930BC006E2C4630A10045087D
:10027800A2000A128A11D8260A128A1183120313BD
:10028800071101300A128A15A0220A128A11831254
:100298000313BD003D080319522953296E290A305A
:1002A8003D020318582959296E29043045020318BC
:1002B8005E295F296E294508463E84003D08831360
:1002C80080000130C50701300A128A153C240A1241
:1002D8008A116E2C3D08031D722973298729043061
:1002E800450203187829792987294508463E84005C
:1002F800831380010130C50701300A128A153C2496
:100308000A128A116E2C2A303D06031D8C298D296C
:10031800A72901300A128A153C240A128A1183126D
:100328000313B90104303902031C9B299C299D2918
:10033800A5293908463E8400831380010130B90796
:100348009629C5016E2C23303D06031DAC29AD2925
:100358006E2C01300A128A153C240A128A11831263
:1003680003134608A800A9012808F2002908F30089
:100378005830F4000230F5000A128A15C3220A1216
:100388008A11720883120313AA007308AB00470886
:10039800AC00AD012C08F2002D08F3003C30F4004D
:1003A8000030F5000A128A15C3220A128A1172084F
:1003B800831203132A07AE0073080318730A2B0766
:1003C800AF004808B000B1013008F2003108F3006E
:1003D8000A30F4000030F5000A128A15C3220A1206
:1003E8008A117208831203132E07B20073080318C8
:1003F800730A2F07B30049083207C00000300318FA
:1004080001303307C100C201C3018C104008410408
:10041800031D0F2A132A831203131215162A831297
:10042800031312110A128A15DA210A128A11F2012B
:100438000C300A128A15CE230A128A11C330F6002C
:100448008530F7008130F8000A128A156D230A12E8
:100458008A11F130F6008530F700C230F8000A1230
:100468008A156D230A128A11E830F6008530F700E4
:100478009230F8000A128A156D230A128A11023086
:10048800F6008630F700D230F8000A128A156D237C
:100498000A128A11831203134108A2004008A1001E
:1004A8000A128A15BE260A128A11831203134108FA
:1004B800BF004008BE000530BC006E2C4A30A100C9
:1004C8004408A2000A128A159D250A128A1183126D
:1004D8000313071101300A128A15A0220A128A1181
:1004E80083120313BD003D0803197B2A7C2A992A2D
:1004F8000A303D020318812A822A992A03304402CD
:100508000318872A882A992A44084A3E84003D0805
:100518008313800001300A128A153C240A128A11BA
:10052800013083120313C4076E2C3D08031D9D2A56
:100538009E2AAA2A033044020318A32AA42AAA2A14
:1005480044084A3E840083138001942A2A303D06D9
:10055800031DAF2AB02AC22ABA0103303A02031C8B
:10056800B62AB72AB82AC02A3A084A3E8400831312
:1005780080010130BA07B12AC4016E2C23303D0630
:10058800031DC72AC82A6E2C4A08A800A9012808F2
:10059800F2002908F3006430F4000030F5000A1274
:1005A8008A15C3220A128A11720883120313AA0039
:1005B8007308AB004B08AC00AD012C08F2002D0805
:1005C800F3000A30F4000030F5000A128A15C3223D
:1005D8000A128A117208831203132A07AE007308DD
:1005E8000318730A2B07AF004C082E07B40000301D
:1005F800031801302F07B5001E30C0000030C100BD
:10060800C201C3018C1040084104031D0C2B102BA0
:10061800831203131215132B8312031312110A12D8
:100628008A15DA210A128A11F2010C300A128A1587
:10063800CE230A128A110A128A1568220A128A110E
:10064800831203134108A2004008A1000A128A1568
:1006580027260A128A11831203134108BF00400893
:10066800BE000A30BC006E2C3F084106031D3E2B1D
:100678003E0840060319412B422B512B4108A2008A
:100688004008A1000A128A15BE260A128A1183128E
:1006980003134108BF004008BE0001300A128A1542
:1006A800A0220A128A1183120313BD00121D5D2BAA
:1006B8005E2B602B0715612B071104303D06031DC7
:1006C800662B672B862B01300A128A153C240A12E6
:1006D8008A1183120313400841040319742B752BE4
:1006E8007B2B1219782B792B7B2B1215AC2B121D17
:1006F8007E2B7F2BAC2B1E30C0070318C10A00309D
:10070800C107AC2B05303D06031D8B2B8C2B962B7C
:1007180001300A128A153C240A128A118312031323
:100728001211AC2B06303D06031D9B2B9C2BAC2BCA
:1007380001300A128A153C240A128A118312031303
:10074800121107110A128A15DA210A128A114A2887
:1007580040084104031DB12BB22B6E2C1211071156
:100768000A128A15DA210A128A110A128A155527DD
:100778000A128A110A128A15DA210A128A110A1231
:100788008A159C230A128A114F283F084106031D27
:10079800CF2B3E0840060319D22BD32BE22B41085E
:1007A800A2004008A1000A128A1527260A128A11F7
:1007B800831203134108BF004008BE00071501302B
:1007C8000A128A15A0220A128A1183120313BD0085
:1007D80004303D06031DF12BF22BFA2B400841048F
:1007E8000319F72BF82B0A2C12150A2C05303D0695
:1007F800031DFF2B002C022C12110A2C06303D067B
:10080800031D072C082C0A2C121145284008410406
:10081800031D0F2C102C6E2C12110A128A15DA21C6
:100828000A128A110A128A1540230A128A1183129F
:100838000313BB0104303B02031C232C242C252C5E
:10084800D4283B08463E8400831380010130BB074F
:100858001E2C1E30C0000030C100C201C3018C1024
:1008680012150A128A15DA210A128A11F2010C30BD
:100878000A128A15CE230A128A11C330F60085306F
:10088800F7008130F8000A128A156D230A128A11BE
:100898000A30F6008630F700C230F8000A128A15CE
:1008A8006D230A128A11E830F6008530F70092307D
:1008B800F8000A128A156D230A128A110230F6000E
:1008C8008630F700D230F8000A128A156D230A1212
:1008D8008A114E2A831203133C08013A031932285D
:1008E800033A03195428013A0319A128073A0319AE
:1008F8003929013A0319382B033A0319D828013A40
:10090800031907290F3A03192D2C013A0319622AF2
:10091800033A0319C92B6E2C0A128A110C28F70105
:10092800F31F972C982C9F2CF209F309F20A03194C
:10093800F30A0130F700F51FA22CA32CAA2CF40906
:10094800F509F40A0319F50A0130F706F801F90167
:10095800720873040319B12CB22CE72C0130F6008D
:10096800BE2C01300310F20DF30DFF3E031DB62C13
:100978000130F607F31FC12CC22CB52C013003102F
:10098800F80DF90DFF3E031DC32C73087502031DF6
:10099800CF2C72087402031CD22CD32CDA2C7208C8
:1009A800F4027308031CF503F502781401300310F0
:1009B800F30CF20CFF3E031DDB2C0130F602031D85
:1009C800E62CE72CC22C77080319EB2CEC2CF12C25
:1009D800F809F909F80A0319F90A7908F3007808F7
:0409E800F200080011
:100A00002034203420342034203420342034203446
:100A10002034203420342034203420342034203436
:100A200000342034203450346F34773465347234D9
:100A300069346E34673420344F344E3420342034DB
:100A40002034003420344D346934633472346F34CC
:100A5000773461347634653420344F3476346534F9
:100A60006E342034003453346534743420345434B8
:100A700069346D346534203428344D344D343A347F
:100A800053345334293400344D346934633472346C
:100A90006F34773461347634653420344D346F34B8
:100AA00064346534003450346F34773465347234D0
:100AB00020343D34203431343234303430345734FF
:100AC000003433342E34203443346F346E3476346F
:100AD00065346334743469346F346E3400345334A1
:100AE000653474342034543465346D3470342034B7
:100AF0002834433429340034543469346D34653433
:100B000020342D342034303430343A3430343034DE
:100B1000003450346F3477346534723420343D34CB
:100B2000203439343034303457340034543465345C
:100B30006D34703420342D3420343034303430343B
:100B400043340034543469346D34653420345234C1
:100B500065346D342E343A34003447347234693499
:100B60006C346C3420344D346F3464346534003468
:100B700050347234653468346534613474346934A3
:100B80006E3467340034543469346D346534203441
:100B9000523465346D343A34003443346F346D3438
:100BA00070346C34653474346534003432342E342B
:100BB00020344734723469346C346C34003431344A
:100BC0002E3420344D346934633472346F3400343D
:100BD00035342E34203450346134753473346534F4
:100BE000003434342E342034533474346134723449
:100BF000743400342A343A3443344C344534413468
:100C00005234003436342E342034533474346F3438
:100C10007034003434342E3420342B3433343034B4
:100C20007334003423343A34533445345434003468
:100C3000543469346D3465340034831203138811DD
:100C40000815881408146430F2000030F300FF30F7
:100C5000F2070318F30AFF30F307720A031D342E5C
:100C6000730A031D342E352E272E83120313061804
:100C70003A2E3B2E3D2E0130D72E8618402E412E87
:100C8000432E0230D72E0619462E472E492E03300A
:100C9000D72E88150811881408146430F20000302B
:100CA000F300FF30F2070318F30AFF30F30773086D
:100CB000803AFF0080307F02031D602E01307202F7
:100CC0000318632E642E512E831203130618692E07
:100CD0006A2E6C2E0430D72E86186F2E702E722E30
:100CE0000530D72E0619752E762E782E0630D72E83
:100CF00088150815881008146430F2000030F300DD
:100D0000FF30F2070318F30AFF30F3077308803A45
:100D1000FF0080307F02031D8F2E01307202031806
:100D2000922E932E802E831203130618982E992E3E
:100D30009B2E0730D72E86189E2E9F2EA12E083070
:100D4000D72E0619A42EA52EA72E0930D72E88152A
:100D50000815881408106430F2000030F300FF30EA
:100D6000F2070318F30AFF30F3077308803AFF0015
:100D700080307F02031DBE2E013072020318C12E87
:100D8000C22EAF2E831203130618C72EC82ECA2EEA
:100D90002A30D72E8618CD2ECE2ED02E0030D72E2C
:100DA0000619D32ED42ED62E2330D72EFF3008008E
:100DB000831203132208031DDE2EDF2EF62EC93008
:100DC000FA005F300A128A15FF210A128A11C9300F
:100DD000FA00831203132108840083130008303EB5
:100DE0000A128A15FF210A128A11022FC930FA004D
:100DF0002108840083130008303E0A128A15FF215F
:100E00000A128A11831203132203031D082F092FCC
:100E1000202FCA30FA005F300A128A15FF210A1209
:100E20008A11CA30FA0083120313210A8400831343
:100E30000008303E0A128A15FF210A128A112C2F4F
:100E4000CA30FA00210A840083130008303E0A12D7
:100E50008A15FF210A128A11CB30FA003A300A12A1
:100E60008A15FF210A128A11023083120313220607
:100E7000031D3B2F3C2F542FCC30FA005F300A1259
:100E80008A15FF210A128A11CC30FA00831203134B
:100E90002108023E840083130008303E0A128A159E
:100EA000FF210A128A11612FCC30FA002108023E7C
:100EB000840083130008303E0A128A15FF210A12AB
:100EC0008A110330831203132206031D682F692F32
:100ED000812FCD30FA005F300A128A15FF210A12E5
:100EE0008A11CD30FA00831203132108033E8400D7
:100EF00083130008303E0A128A15FF210A128A1154
:100F00008E2FCD30FA002108033E840083130008A1
:100F1000303E0A128A15FF210A128A110800C330D6
:100F2000F700CD30F600F60B932FF70B932FF2015D
:100F300033300A128A15CE230A128A111B30F700A9
:100F40009E30F600F60BA22FF70BA22F0000F20145
:100F500033300A128A15CE230A128A11A630F600FF
:100F6000F60BB02F0000F20133300A128A15CE239F
:100F70000A128A11BB2FBC2F0000F20102300A12A4
:100F80008A15CE230A128A11A630F600F60BC62F58
:100F90000000F20128300A128A15CE230A128A11A3
:100FA000A630F600F60BD22F0000F20101300A1233
:100FB0008A15CE230A128A110430F7003D30F6005C
:100FC000F60BE02FF70BE02FE52FF2010C300A12A1
:100FD0008A15CE230A128A11A630F600F60BEE2FE0
:100FE00000000800831603138801091189100A12F2
:0C0FF0008A118F270A128A1108000134B0
:10100000FF1B0A2883137F1883170008840A03191B
:10101000FF0A08007F087F398A000408840A031940
:04102000FF0A820041
:10139400831603130608073886000808F039880006
:1013A4008113831203138815081588140814080080
:1013B400F20101300A128A15CE230A128A1504306A
:1013C400F7003D30F600F60BE529F70BE529EA298D
:1013D40008008312031312149214FA3083160313B1
:1013E4009200831203138C10831603138C140B17AF
:1013F4008B17831203131211080083120313A00026
:10140400F2017A080A128A15CE230A128A15F20109
:10141400F20A8312031320080A128A15CE230A1231
:101424008A1508000A128A15DA210A128A1564300C
:10143400F6008530F700C330F8000A128A156D23D0
:101444000A128A154E30F6008530F7009630F800FF
:101454000A128A156D230A128A1508000A128A15BF
:10146400DA210A128A15AD30F6008530F700C33050
:10147400F8000A128A156D230A128A155330F600F1
:101484008530F7009130F8000A128A156D230A128C
:101494008A1508000A128A15DA210A128A154430BC
:1014A400F6008530F700C130F8000A128A156D2362
:1014B4000A128A158930F6008530F7009230F80058
:1014C4000A128A156D230A128A1508000A128A154F
:1014D400DA210A128A15B830F6008530F700833015
:1014E400F8000A128A156D230A128A15A230F60032
:1014F4008530F700C330F8000A128A156D230A12EA
:101504008A1508000A128A15EB210A128A150A1292
:101514008A11F2270A128A150A128A15CA210A1296
:101524008A158316031307118312031307118316F5
:10153400031387108312031387100800F4000A12A0
:101544008A111D260A128A15F5007408031DAB2A98
:10155400AC2AAE2A7508C22A750A0319B22AB32A1C
:10156400BA2A7B080319B72AB82ABA2AFB01AC2A7B
:10157400750A031DBE2ABF2AC12A0130FB00FF30B1
:101584000800F601F701721CC82AC92ACF2A740878
:10159400F6070318F70A7508F70701300310F40D6E
:1015A400F50DFF3E031DD02A01300310F30CF20C9D
:1015B400FF3E031DD72A72087304031DE22AE32A9F
:1015C400C52A7708F3007608F20008008312031393
:1015D4008C1CED2AEE2A0C2B0130C2070318C30A17
:1015E4000030C307E2304206043003194306031DEA
:1015F400FC2AFD2A0B2B400841040319022B032B60
:10160400092B0130C0020030031CC103C102C20116
:10161400C3018C1071088A00700E8300FE0E7E0ECA
:1016240009006F30F6008530F7008230F8000A12A6
:101634008A156D230A128A159630F6008530F70054
:10164400C230F8000A128A156D230A128A15FA307C
:10165400F6008530F700D030F8000A128A156D23A1
:101664000A128A151230F6008630F700DB30F800D3
:101674000A128A156D230A128A1508003330F600FF
:101684008530F7008030F8000A128A156D230A129B
:101694008A157C30F6008530F700C230F8000A1253
:1016A4008A156D230A128A15FA30F6008530F70080
:1016B400D030F8000A128A156D230A128A151230E6
:1016C400F6008630F700DB30F8000A128A156D2325
:1016D4000A128A150800F20178080A128A15CE2324
:1016E4000A128A158B2BF201F20A7708FF0076089A
:1016F40084000A128A1500200A128A150A128A1511
:10170400CE230A128A150130F6070318F70A0030AF
:10171400F707770883120313FF00760884000A1280
:101724008A1500200A128A15003A031D9A2B9B2B56
:10173400752B08000A128A15DA210A128A15DF307D
:10174400F6008530F7008030F8000A128A156D2300
:101754000A128A15D630F6008530F700C030F8003A
:101764000A128A156D230A128A156130F600853033
:10177400F7009030F8000A128A156D230A128A15B0
:10178400F130F6008530F700D030F8000A128A15DF
:101794006D230A128A150800F5007218D22BD62B75
:1017A400831203130915D92B831203130911750826
:1017B400F03988008914A630F300F30BDF2B000006
:1017C40083120313891075080F39F30003300310D3
:1017D400F30DFF3E031DE92B0310730D88008914DC
:1017E400A630F300F30BF42B0000831203138910CB
:1017F4001B30F4009E30F300F30BFE2BF40BFE2B96
:1018040000000800720873040319092C0A2C372CF1
:101814000130F600162C01300310F20DF30DFF3EDB
:10182400031D0E2C0130F607F31F192C1A2C0D2C56
:1018340073087502031D202C72087402031C232CE8
:10184400242C2A2C7208F4027308031CF503F502F5
:1018540001300310F30CF20CFF3E031D2B2C01305E
:10186400F602031D362C372C1A2C7508F300740865
:10187400F2000800F500F601732C83120313871499
:101884000330F4008A30F3005530F200F20B482C98
:10189400F30B482CF40B482C4F2C831203138710A2
:1018A4007508FF3EF200FF3003180030F3007308A0
:1018B400803A803C031D602C720876020318632C66
:1018C400642C712C0330F4008A30F3005530F2009C
:1018D400F20B6A2CF30B6A2CF40B6A2C712C01307A
:1018E400F60775087602031C782C792C3F2C080027
:1018F400F601F701720873040319812C822CB72CAA
:101904000130F8008E2C01300310F20DF30DFF3E70
:10191400031D862C0130F807F31F912C922C852C83
:1019240001300310F60DF70DFF3E031D932C7308D1
:101934007502031D9F2C72087402031CA22CA32C95
:10194400AA2C7208F4027308031CF503F50276143A
:1019540001300310F30CF20CFF3E031DAB2C0130DD
:10196400F802031DB62CB72C922C7708F3007608E6
:10197400F2000800F701F51FC02CC12CC82CF40993
:10198400F509F40A0319F50A0130F700F31FCB2C0B
:10199400CC2CD12CF209F309F20A0319F30A7208C8
:1019A40073040319D62CD72C042D0130F600E32C34
:1019B40001300310F20DF30DFF3E031DDB2C01304B
:1019C400F607F31FE62CE72CDA2C73087502031DC7
:1019D400ED2C72087402031CF02CF12CF72C720805
:1019E400F4027308031CF503F50201300310F30C31
:1019F400F20CFF3E031DF82C0130F602031D032DEB
:101A0400042DE72C77080319082D092D0E2DF40950
:101A1400F509F40A0319F50A7508F3007408F200CD
:101A2400080083120313A401A501831203132408DD
:101A3400803EFA00FF300A128A15FF210A128A1525
:101A4400023083120313A3004530A200A930A10081
:101A5400A10B2A2DA20B2A2DA30B2A2D01308312B0
:101A64000313A4070318A50A0030A5072508803A24
:101A7400FF0080307F02031D412D10302402031C1F
:101A8400442D452D172D1130F6008530F700C03058
:101A9400F8000A128A156D230A128A150D30831272
:101AA4000313A300AF30A200B530A100A10B582D41
:101AB400A20B582DA30B582D5F2D2230F600853034
:101AC400F7009030F8000A128A156D230A128A155D
:101AD40083120313A401A501831203132408D03E27
:101AE400FA00FF300A128A15FF210A128A15023001
:101AF40083120313A3004530A200A930A100A10B57
:101B0400812DA20B812DA30B812D01308312031390
:101B1400A4070318A50A0030A5072508803AFF008A
:101B240080307F02031D982D10302402031C9B2D4E
:101B34009C2D6E2D0800831203132208031DA32D70
:101B4400A42DBB2DC930FA005F300A128A15FF217B
:101B54000A128A15C930FA0083120313210884007B
:101B640083130008303E0A128A15FF210A128A15CF
:101B7400C72DC930FA002108840083130008303EC1
:101B84000A128A15FF210A128A15831203132203EB
:101B9400031DCD2DCE2DE52DCA30FA005F300A127B
:101BA4008A15FF210A128A15CA30FA008312031318
:101BB400210A840083130008303E0A128A15FF218B
:101BC4000A128A15F12DCA30FA00210A84008313FF
:101BD4000008303E0A128A15FF210A128A150230C3
:101BE400831203132206031DF82DF92D112ECB3079
:101BF400FA005F300A128A15FF210A128A15CB30C7
:101C0400FA00831203132108023E840083130008A0
:101C1400303E0A128A15FF210A128A151E2ECB3075
:101C2400FA002108023E840083130008303E0A12A1
:101C34008A15FF210A128A15CC30FA0043300A12A1
:101C44008A15FF210A128A1508003C30F200003080
:101C5400F300831203132208F5002108F4000A128A
:101C64008A157A240A128A15720883120313A500AE
:101C74003C30F2000030F3002208F5002108F400A3
:101C84000A128A1504240A128A157208831203138D
:101C9400A6009530FA000A30F2000030F30025085F
:101CA400A300A4012308F4002408F5000A128A11F1
:101CB40093240A128A157208303E0A128A15FF21EB
:101CC4000A128A159630FA000A30F2000030F30046
:101CD400831203132508A300A4012308F400240895
:101CE400F5000A128A15BC240A128A157208303EBD
:101CF4000A128A15FF210A128A159730FA003A301F
:101D04000A128A15FF210A128A159830FA000A303D
:101D1400F2000030F300831203132608A300A40189
:101D24002308F4002408F5000A128A1193240A12E5
:101D34008A157208303E0A128A15FF210A128A1582
:101D44009930FA000A30F2000030F30083120313D2
:101D54002608A300A4012308F4002408F5000A12AD
:101D64008A15BC240A128A157208303E0A128A1592
:101D7400FF210A128A1508003C30F2000030F300FB
:101D8400831203132208F5002108F4000A128A15AD
:101D94007A240A128A15720883120313A5003C30B0
:101DA400F2000030F3002208F5002108F4000A12C2
:101DB4008A1504240A128A15720883120313A600D2
:101DC4008A30FA000A30F2000030F3002508A3003C
:101DD400A4012308F4002408F5000A128A119324AC
:101DE4000A128A157208303E0A128A15FF210A1255
:101DF4008A158B30FA000A30F2000030F3008312A7
:101E040003132508A300A4012308F4002408F50003
:101E14000A128A15BC240A128A157208303E0A1264
:101E24008A15FF210A128A158C30FA003A300A12F8
:101E34008A15FF210A128A158D30FA000A30F20041
:101E44000030F300831203132608A300A40123081F
:101E5400F4002408F5000A128A1193240A128A1540
:101E64007208303E0A128A15FF210A128A158E3032
:101E7400FA000A30F2000030F3008312031326083C
:101E8400A300A4012308F4002408F5000A128A150B
:101E9400BC240A128A157208303E0A128A15FF21E0
:101EA4000A128A15080083120313A601A7018312DC
:101EB40003132608803EFA00FF300A128A15FF2118
:101EC4000A128A15013083120313A6070318A70AFE
:101ED4000030A7072708803AFF0080307F02031DE7
:101EE400752F10302602031C782F792F592F831257
:101EF4000313A601A701831203132608D03EFA0098
:101F0400FF300A128A15FF210A128A150130831242
:101F14000313A6070318A70A0030A7072708803A67
:101F2400FF0080307F02031D992F10302602031C0E
:101F34009C2F9D2F7D2F83120313A401A50118301C
:101F4400F6008630F700C630F8000A128A156D23B1
:101F54000A128A15CD30F6008530F7009430F80067
:101F64000A128A156D230A128A1533308312031359
:101F7400A300BB30A200DF30A100A10BBF2FA20B36
:101F8400BF2FA30BBF2F0030F6008530F700C03001
:101F9400F8000A128A156D230A128A150030F60019
:101FA4008530F7009030F8000A128A156D230A1262
:101FB4008A151A3083120313A3005E30A2006D3019
:101FC400A100A10BE32FA20BE32FA30BE32FEA2F16
:101FD400013083120313A4070318A50A0030A507D0
:101FE4002508803AFF0080307F02031DFB2F02305A
:0C1FF4002402031CFE2FFF2FA12F080069
:02400E00FB3F76
:00000001FF
